:03000000020003F8
:0C000300787FE4F6D8FD75814202004AC7
:010148002294
:10012A00D3EF9400EE940040147D787C00ED1D70AE
:0D013A00011CED4C70F7EF1F70E61E80E316
:010147002295
:1000E200083BFEFDFBF7EFDFBF7F1A21BF86DBCFA8
:1000F200E6EDFD87FFEF3F065B4F666D7D077F6F85
:06010200777C395E797183
:10010900C2A7C2A6D2A7743A2FF8E6F580C2A7D231
:10011900A674212DF8E6F580C2A67F017E000201B2
:010129002AAB
:10008F00C2A4C2A5200004D2A48005300002D2A5CC
:10009F0020011D7FFEA808EF08800123D8FDFFE592
:1000AF00906007EF60047E0180027E008E90801EBC
:1000BF0030011B7F01A808EF08800123D8FDFFE561
:1000CF00907003EF60047E0180027E008E90C2A4C8
:0200DF00C2A5B8
:0100E10022FC
:10000F00020148E493A3F8E493A34003F68001F2BE
:10001F0008DFF48029E493A3F85407240CC8C333F2
:10002F00C4540F4420C8834004F456800146F6DFC1
:10003F00E4800B01020408102040809000E2E47E6F
:10004F00019360BCA3FF543F30E509541FFEE493B6
:10005F00A360010ECF54C025E060A840B8E493A37D
:10006F00FAE493A3F8E493A3C8C582C8CAC583CAA8
:10007F00F0A3C8C582C8CAC583CADFE9DEE780BE60
:0101080000F6
:00000001FF
